:20000000003C0120A9860100299301002993010029930100299301002993010029930100E5
:1C002000299301002993010029930100299301002993010029930100C1BE0000D7
:2000400038B586B004468DF805104FF6FF720120ADF80220090ADFF8D45AADF80000022319
:200060008DF806108DF8043069462A7820461BF033FE162803D1297820461BF029FE07B037
:2000800030BD3EB504000D461ED0DFF8A40A006822461BF019FEFF2815D0002000900023E5
:2000A00001AA294620460FF01BF860B99DF8040000F075F9C00606D59DF8040000F06FF90C
:2000C00010F0040000D001203EBDFEB5164615244FF6FF7290420D4615D100208DF804007E
:2000E000DFF8487A9DF80400F97988421AD23246294600F03AF800B100249DF80400401CD3
:200100008DF80400EEE71BF0DBFD50B100F0A7FB40B99DF804003246294600F026F8002460
:2001200000E014242046FEBD7CB50D46044606214C43164600F080F8A8B900F078F890B934
:200140009DF80700002E14BF054320EA0505E9B2814206D08DF807506A460821A0B219F062
:20016000BFF9012076BD002076BD2DE9FC410646344606235C438846154600F05DF80028A9
:2001800052D100F054F800284ED1DFF8A079387A80001AF0BDFE040002D100F02BFA43E0C3
:2001A000397AE03689062246090EB0B219F084F9002835D1204600F058F85FEA08000ED17C
:2001C0003A7A9206120E0021204619F032FF38BB3A7A9200002120461AF0A8FC16E0214627
:2001E00000F030F858B9280004D02146002000F029F810B900F01EFC16E0A0F80080817868
:20020000A9420DD085700DB900210180204600F02CF8397A89062246090EB0B219F060F9BA
:2002200000F008FC012000E00020BDE8F6810622FF21684619F0FDBE20346A460821A0B254
:2002400019F03AB970B5DFF8E4381D7A002200E0521CD4B2AC4206D231F824608642F7D1FA
:2002600001EB840070BD002070BD10B50021DFF8BC280AE030F82130DB4320F8213000EB1E
:200280008103491C9C78E4439C70137A9942F1DB10BD2DE9FE4FDFF894480646207A0F46DC
:2002A00091469B4680001AF033FE5FEA000803D100F0A0F90A206CE00C9D0297B246062740
:2002C00017FB0AF7029A07F12000082100F064F88DF80400304600F09FF8227A9200FF210E
:2002E00040461AF023FC9DF804000090E036217A89064246090EB0B219F0F2F8009E0299B9
:200300000643206A082200EBCA001AF005FCBDB10299887900232A4600F001001BF0CCFCBF
:2003200000281CBF9DF93C00002803D0DFF804180120087007F123002A4600F02CF8064379
:200340005FEA090205D007F121001C2100F024F806435FEA0B0205D007F122001C2100F057
:200360001BF806430D9A62B107F1240000F013F8054625370EAA0421B8B219F0B1F8054368
:200380002E43A07D08B100F09FFA40461AF0C8FDF0B2BDE8FE8F102180B219F0A1B8E0B50A
:2003A0000623584320306A46082180B219F084F810B99DF807000EBD00200EBDDFF86C0734
:2003C000007808210EF01EB838B50025DFF85C4719E0206A062313FB05F300EBC502203365
:2003E000082198B219F068F858B1206A0622FF2100EBC5001AF09AFB206A00EBC50100229A
:20040000CA716D1CEDB2E1798D42E2DBA07D10B1BDE8314058E231BDF8B5DFF81017DFF8F5
:200420001837C9791E680C460A4600E02A46D5B23DB1551ED2B2324412F8017C8742F5D1BB
:200440002C46E4B220464D1E07E01718165C7F7817541A680244401C5670A8421A68F4DBB4
:20046000AC4204DABDE8F840052019F039B8F1BD70B50024DFF8B45600E0641CE879E3B286
:2004800083420BD22B6AE6B20622FF2103EBC60019F0CFFD0028F0D0E0B270BDDFF89C267C
:2004A000117839B1DFF8900601680C78204600F013F8204670BD38B500200024DFF86C56B1
:2004C00003E0E0B200F008F8641CEA79E1B2914201D20100F5D032BD2DE9F84F83465D461D
:2004E000062313FB05F58EB005F1200701AA0821B8B218F0E1FF002873D10622FF2101A8ED
:2005000019F097FD00286CD1DFF82066307A80001AF0FEFC5FEA000903D100F06BF80A20AB
:2005200061E01C22FF2103A81AF000FB327A9200FF2148461AF0FAFA05F123040AAA102180
:20054000A0B218F0B9FF60B91022FF210AA819F070FD30B99DF80A0001A900F001001BF0C8
:20056000A7FB082200F042F801AA0821B8B218F0B7FF8DF8000003AA05F1210000F03DF81B
:20058000074605F1220003AA00F037F8804603AA1021A0B218F0A4FF044605F1240003AA78
:2005A000102100F02BF88246253503AA0421A8B248EA070718F094FF2743317A9DF80050D4
:2005C0004AEA0707074389060BF1E0034A46090E98B218F085FF074348461AF0A1FC3D43A5
:2005E00000E0002528460FB0BDE8F08FFF2101A81AF09CBA042018F039BD1C2180B218F0E3
:200600006FBF2DE9F84187B0FF208DF80000DFF81C55E8791AF07CFC040003D1FFF7EAFFA0
:200620000A2030E01022FF2103A81AF07FFAEA79FF2120461AF07AFA0622FFF7D7FF03AAF8
:200640001021022018F04CFF064603AA1021032018F046FF06436A460121042018F040FFD4
:200660000746E9792246052018F03AFF054601AA0621062018F034FF804600F0DBF93E4374
:200680002E4348EA060008B0BDE8F081DFF89C144088097818F0C0BEF0B5A9B006460D46F0
:2006A00014461BF00DFB08B91420ACE0A422002168461AF03BFAADF800600DF12607DFF871
:2006C0006C64F078F17B8DF80400307C8DF8A000279861F30000F17B27908A074CBF022226
:2006E000002220F0020010432790CA064CBF4FF48072002220F48070104327908A064CBFE1
:200700004FF40072002220F40070104327904A064CBF4FF48062002220F4806010432790D4
:2007200049074CBF0421002120F0040008432790707C02280CBF0120002078741BF0B4FA3B
:20074000412807DB707C00B108209DF8991008438DF89900F07CB8B10121B974202206F185
:2007600088010DF139001AF0D7F9202206F1A8010DF159001AF0D0F9202206F1C8010DF1D3
:2007800079001AF0C9F900E0B874707B8DF8050090B1DFF8AC73102207F110010DF106001D
:2007A0001AF0BAF99DF89900082805D1102239460DF116001AF0B0F9307B8DF8260030B199
:2007C0001022DFF880130DF127001AF0A5F9307948B1022D18BF032D03D1279840F0020013
:2007E0002790012100E000219DF899000143B0788DF8991000B1042001438DF89910684662
:2008000021461BF04DFA29B0F0BD2DE9FC41154615244FF6FF72904288460ED10027DFF87F
:200820000C63F179F8B2884216D22A464146FFF77BFC00B100247F1CF3E71BF041FA50B18E
:2008400000F00DF840B99DF804002A464146FFF76BFC002400E014242046BDE8F6810021DE
:2008600000910023417901AA01F00101801D0EF037BC70B504460D4606204543082B88B003
:20088000164603D1300758BF223500D521351C220021FFF7ACFE01AA1C21A8B218F00CFE05
:2008A00080B99DF81E00C01F0A280BD29DF830000090F20801AB02F0010206F00101204610
:2008C0001BF0EAF908B070BD38B51BF0E1F90024964D0FE0286A0622FF2100EBC40019F0EB
:2008E000A8FB28B9286A00EBC40100201BF0CCF9641CE4B2E8798442ECDB31BDF0B5924CCD
:200900000646606885B04FF6FF7538B9009402238E4A294601201BF0B3F96060616821B3AF
:200920000222FF2002920023039001930DF112072288009704AB304606F0FCFE68B99DF873
:2009400010009DF8111000EB012290B228B16068418992B23046FFF7B8FB2288606800231E
:2009600029461BF089F9606008B9012000E0002005B0F0BD3EB50C4600250146009500230E
:2009800001AA20460EF0ACFB38B99DF80400FFF706FDC00601D401203EBD00203EBD2DE936
:2009A000F0416B4F3C6806468846154603E02089B04224D02468002CF9D10C201AF0A8FA67
:2009C000040019D0268184F80A8000202060E07245B10821284619F027FD606018B900F050
:2009E00029F80AE06060396811B93C6004E0014608680028FBD10C600CB9152018E01BF02D
:200A000037F908B1002013E00120E0722A4641463046FFF741FE04464448C06900281CBFC3
:200A20004368002B03D000220021304698472046BDE8F08120461AF073BA38B50546444898
:200A4000046803E02089A84204D02468002CF9D1012032BDE07A012807D100F05CF820B1DE
:200A60003248007804210DF0CDFCE17A491CE1722846C9B200F002F8002032BD38B502298C
:200A800004462A4D02D003290DD01EE042F6C921FFF7D6FA02001CBFE869002818D04368EB
:200AA000B3B105210CE042F6A621FFF7C9FA01001CBFE96900290BD04B684BB102460421BA
:200AC000204601B0BDE830401847BDE8324000E031BD10B51E4A1468002101E02146246808
:200AE0006CB123898342F9D1206800290CBF10600860606808B11AF013FAFFF79BFF002002
:200B000010BD024604201249096819B10B899342FAD1C87A70470E48006828B1006818B111
:200B2000C17A0029FAD1704700207047A4190020680F0020063E00209C3D0020053E0020C4
:200B4000B43A0020E43A0020503D0020F2E70100A03D00202DE9F04385B00646002089460C
:200B6000009090461C46B179002304AA30460EF0B7FA20B1FFF77CFC8DF810001BE0D4B139
:200B80009DF810300620434323336A46102198B218F092FC78B91022FF21684619F049FA40
:200BA00048B9B079314600F001001BF081F810B1194901200870194F9DF81000F97988421A
:200BC00027D201200390009443460C980D990E9D019002914A469DF810003146FFF759FB3C
:200BE000044655B1397A9DF810008906E0302A46090E80B218F074FC0443200005D09DF8AC
:200C00001000FFF769FCFFF7DFFB204605B0BDE8F0831520FAE700BF063E0020A419002050
:200C20008EB004F075FDDFF8BC49211D204614F02BFC04F118001AF0D1F9DFF8AC39A060C8
:200C400000204FF6FF7B0021B1F5A07F05D05A1823F801B01031D060F6E7DFF8900911F0FD
:200C6000D7FBDFF88C09DFF88C19DFF88C6900221523002700901020B04744F26820FB21DC
:200C80001B224FF4A473CDE90010DFF870191020B047DFF86C19DFF86C291020B0472178E8
:200CA000DFF864595020A847DFF8601902461020B047DFF85C1910200122B047DFF85419A8
:200CC00010204FF0FF32B04721785020A847DFF8481902461020B0470DF052FEDFF83C89F5
:200CE000DFF83C19102008F12002B047DFF83419102000220023B04721785020A847DFF827
:200D0000281902461020B04721785020A8470346DFF8180902210822CDE90010DFF81019D7
:200D20001020B0474FF0FF300021464614F01EFEDFF80059C8F80C0000214FF0FF32284656
:200D400018F0ACFDD8F80C00DFF8EC382946052217F016FEDFF8E418D8F80C00DFF8E038BC
:200D60000022097819F062FD07A80DF1140A02300390606800214FF040424FF0FF330CF0C1
:200D8000A3FE0028F5D08046059706A80DF11B01524617F0FCF9002840F03181BDF8180030
:200DA000102840F0248120789DF81B10814240F01E81DDF81490B9F80000584500F01981EB
:200DC000C1B2912900F0CD80B02900F0F380D02940F00D8199F80200072800F22181DFE899
:200DE00010F0080006010601060106019C01CE01EF01DFF8D018DFF8D028DFF8FC5710208B
:200E00000023A847DFF8C41810204FF48602A8474FF41660DFF8B81804220023CDE90000C4
:200E20001020A8471820DFF8AC180022ADF81C00102007ABA84704200DF13706DFF894182A
:200E400001228DF8370010203346A8470120DFF88418062233468DF837001020A84740F6D5
:200E60000200DFF870180322ADF81C00102007ABA847DFF86468502004220223009010203C
:200E80003146A847502031460422032300901020A847B9F80400432100226080DFF894077D
:200EA00018F0FCFCDFF89427DFF87007DFF82C38DFF82C581178C068164600220331C9B2DE
:200EC000A847DFF85827DFF854073178DFF8DC3712790431C068C9B200920022A847DFF82B
:200EE0003C07C568DFF85407067809F1060016F0B7F8DFF8F017DFF8F037DFF8E4970022CD
:200F0000CDE90010701DC1B22846C84700201AF0ABFE0268DFF8041741F8182F80888880CF
:200F2000DFF8F806C568DFF814070678084616F097F80090B01DDFF8B437DFF8E0660022FE
:200F4000C1B22846C8470120DFF8A41740F6B832002300900920019004F1200014F090FBBD
:200F600045E0000A3E2874D00F2800F08B80102800F0AD800E283AD1B9F8040041F20541A2
:200F8000884234D1DFF8B406F5680678D9F8080090F90370B0F8010017F060FFCDE9000775
:200FA000B01CDFF8C436DFF8746600220027C1B2284618E2B9F802001AF052FE88B999F8E0
:200FC0000110162940F08880DFF8701699F80420F068DFF8C03609780092002201311AF0E1
:200FE0002DFA99F8041009F108001AF035FEDDF81490B9F1000F02D048461AF013FA5FEAF4
:2010000048007FF5B6AEA06819F038FB00283FF4B0AE054601F0BAFD28461AF05EFAF2E717
:20102000112800F06C811528E1D13078002800F03F82E168002900F02D8204F1100019F00B
:2010400050FAE0681AF049FA7078E760411E717021E299F802000C28C9D1DFF8E015B9F861
:201060000400F56899F8037009788E1C17F0F6FE002F00F0E981DFF8CC3500901AF05FF992
:2010800000274AE2B9F8041040F206408142AED042F23200814240F09B8199F80210F0680F
:2010A0001A2901BFDFF8941509780131C9B207BF0022DFF8AC35DFF8842512781FBF009166
:2010C000511CC9B2002218BFDFF890358BE1082000210DF0B7FC8AE799F804007F2800F091
:2010E000BD810B2800F0C081132800F0C8817E2800F0CA81012840F08A8199F80820122AA0
:2011000000F00D820A2A40F08281DFF8301599F80C20F068DFF868355DE73046B9F80A606F
:2011200009F104070078D0B1E068C0B100F108013846062219F06AF988B104F11005E16860
:20114000284619F0CEF9E168284619F0E8FBE0680021E160817C068241F001018174DFF880
:20116000880400218DF81C100430142900F0378230F8042C5A4556D010300131F5E73078E4
:20118000B9F8049000283ED004F1100528461AF032FA0646B8B3308A48450DD12846314665
:2011A00019F09FF92846314619F0C4FBB07CA6F810B000F0FE00B07430461AF01EFAE8E7DE
:2011C000B9F80420DFF8D014102007AB10F0ACFF002840F09181DFF86404F5680078461C12
:2011E00099F80300002800F07681039899F8027015F036FFDFF8A434009701900027F1B2D3
:201200002846002275E1484614F010FADFF8D813DFF80864002014287ED00A884A457DD02F
:2012200010310130F7E720F8046CDFF8F033C9B23A680260BA8882801A79013214291A718B
:2012400080F0CD81002520F8025C15F009FFDFF8EC63DFF8C8930746DFF858340022009767
:201260003178D9F80C0003311AF0E8F8317899F80420D9F80C00DFF8343404310092002267
:201280001AF0DCF8DFF82804866899F8040004905FFA85F94E4515D9DFF8140439460F225F
:2012A000006950F8390018F0DFFF48B9DFF800640120002100FA09F2304618F0EFFAB66866
:2012C0000135E5E704981C221328DFF8680388BF1F22D14318F0E2FADFF8DC1310204FF4FC
:2012E000806207AB10F020FFCC4E307828B19DF81C00022801D010F06DF9002777E6B9F859
:201300000400ADF81C0099F80E008DF82600B07800286BD0002072E0142505E0A1F800B05A
:201320003179C5B201393171307808B110F052F9142D80F05481AC4800EB0510043015F051
:201340008FFEDFF8F8B20546F068D74B00223746002600959BF8001003311AF06FF89BF885
:2013600000103A79F868D14B0431009200221AF065F8CF4887685FFA86FB5F4513D9CC485A
:2013800029460F22006950F83B0018F06DFF40B9C74F0120002200FA0BF1384618F07EFA07
:2013A000BF680136E7E79D4E632130790028A14808BF4321CA4318F071FAF0884FF6FF7BF6
:2013C000002781457FF413AE9A4815F08FFB0EE69A4A99F80230F0681278CDE90013A14B49
:2013E000D11C0022C9B219F021FA00E6D9F80600D9F80A10CDF81E000120CDF82210A949AA
:201400008DF82700102007AA10F08EFE74E07279032A00F09380022A00F0B180012A08BF05
:2014200003287FF4DEAD022021787071ABF10F00ADF81C00B9F80250502017F075FC02216D
:20144000CDE900109149C4E099F807207E490027012A5DD0022A56D17C4959E07749B9F888
:201460000820F068814BB6E57449D9F80C20F068844B09781278013100920022AFE56F4967
:20148000F278F0687B4B4FE06C4999F80820F068774BA0E57178694AC9B2F068874B0091B6
:2014A000127802F10801002219F0C8FF10F092F86249F068824B357900220978033119F0CC
:2014C000BDFF002D4FF06B015A4808BF4B21CA4318F0E4F98BE5039815F0C2FDBDF83010ED
:2014E0006F4B002201EB81014900CDE90001F1B2284619F09BF9494E307800283FF477AD36
:2015000010F068F873E55349032A514A08BF1146514BCDE9000119F012FF404E67E54749BA
:2015200099F80C20F068544B097800920022013119F084FF514815F0D9FA52E509281CD13E
:20154000B9F80800C8B1F08818F01AFC142846D225494F4B002201EB0010D9F80C10B1F8B3
:20156000031041803549F0680978013119F066FF42480321002218F091F9777131E5072811
:201580000AD1B9F808202AB1D9F80C2013883381528872811A2902D001287FF422AD30896A
:2015A00000283FF41EAD0321ADF81C0070897171FF218DF822104FF20211ADF81E005020E7
:2015C000ADF820102178B9F8025017F0ADFB2E49009010202A4607AB10F0A6FD01E519F000
:2015E000E1FC00BFB01F0020002F002067B301004022002095440100292101000D3D0210F3
:20160000397F0110E9CB0100298D0100F16C021051990100617801002D6D0210A8210020CC
:20162000E1990100E1710100D96C02109C23002035AC0000903C0020B9AE00000D3E002007
:201640005CCC0100DDCC01000ACD010011CD010018CD01001ECD0100F4CC0100A0CC010000
:2016600071CC0100BACC0100BBCE01009DCE01008DCE01007ACE01006BCE0100A43C0020D0
:201680004CCE01005ACE01002565021039BD0110AACE010039CE0100F9DC0110F2CD01003C
:2016A000D6CD0100D9570110C3CD01003FCD0100683C0020B3CD010059D5000068CD0100FE
:2016C00097CD0100896102106B7B0100C5690110F5F9011095390110D5F4011033CD0100CA
:2016E0002DA8010059CD01004DCD01005CCD0100018301002DE9F84FDFF89457696884B0FF
:20170000019121B905B0BDE8F04F1AF0A1BA0978DFF88067DFF88077012918BF022946F2EE
:20172000A81A40F6C41941F64C580AD004291CBF0829102905D0402918BF802900F0C081BE
:201740009CE319F08FFD0028FAD0012016F05CFC20B1012016F05AFF16F03AFC082016F049
:2017600053FC20B1082016F051FF16F031FC102016F04AFC20B1102016F048FF16F028FCA4
:201780000198007802F0C6FF0090002460B1007801281CBF0828102802D10098446803E0DE
:2017A000009816F015FC0446DFF8F0164878002800F0F08019F001FF19F0A4F98246DFF8BD
:2017C000DC16DAF800000190002CD0F804B09AF80600C87004D00199009819F0ECFE022819
:2017E00000F0AB8000990A78012A0AD0022A11D0042A56D0082A00F00A81102A00F03481C1
:201800003CE318B91AF020FA4044A0600120A87011212CE105223A70C8B91AF015FA4044C9
:20182000A060DFF87C266069A1681368DE69DFF874361B78B21D03EB8303D25A09FB0219F9
:20184000C0F82090A068DFF858160A6810615246DFF84C060168CB69DFF848160E78981D22
:2018600006EB8606815B00980FF0DEFB61696269D27F02F0EF02CA77002861696269D27F87
:2018800042F08002CA770CBF0121022162696369DB7F03F0F0031943D17761694862022032
:2018A00049E006213970C8B91AF0CEF94044A060DFF8F4256069A16813685E69DFF8EC355D
:2018C0001B7806F10C021B01D25A09FB0219C0F82090A068DFF8D0150A68D060DFF8C86537
:2018E0003068007C0FF0E8FD30684169DFF8BC05067801F10C0336010098995B52460FF03D
:2019000093FB61696269D27F02F0EF02CA77002861696269D27F42F08002CA770CBF01213F
:20192000022162696369DB7F03F0F0031943D177616948620420A870D7E1019801788029E6
:201940000CD10820DFF8681538700A78DBF81400012A1ABF716A0978012113E007203870D9
:201960009AF8060019F08CFA0446207BC10700F1CE80DFF83C050178DBF8140001291CBFD7
:20198000716A4978C1729AF80600DFF81015887001986EE20098002823D00199009A0078A4
:2019A000DFF80465914212D1012809D002280DD0042800F08080082802D0102806D002E01A
:2019C000002C03D160E2002017F050FB8DE1012808D002281FD004284BD0082815D0102837
:2019E00040D04BE2002CEDD01AF02EF90146A068514418F065FA18B91AF026F94044A060C7
:201A0000112038700121A9706FE1002CDAD00820A87012212BE0052038700222AA701AF0F9
:201A200013F90146A068514418F04AFA08B100F05CB91AF009F94044A060DFF864246069F4
:201A4000A1681368DD69DFF85C341B78AE1D03EB8303F55A09FB0519C0F82090A068116829
:201A6000086142E1002CADD01020A870132139703BE1062038700422AA701AF0E5F80146B4
:201A8000A068514418F01CFAA8B91AF0DDF84044A0606069A16832685369DFF8102412780A
:201AA00003F10C051201AB5A09FB0319C0F82090A0683168C8603068007C0FF0FDFC14E1B7
:201AC000DFF8D8134878002800F0388119F075FD19F018F88246DAF800000290D0F804B077
:201AE000DFF8B803807819F00DF80390DFF8AC139AF80600C87001980178402913D19AF864
:201B0000060019F0BDF90446207BC1070BD59AF8060018F0F7FF052117F092FC207B00F097
:201B2000FE002073B0E119F097FB10F01F0F32D0012016F069FA20B1012016F067FD16F0CC
:201B400047FA082016F060FA20B1082016F05EFD16F03EFA102016F057FA20B1102016F096
:201B600055FD16F035FAA87802F0D4FD0090007801281CBF0828102802D10098446803E08D
:201B8000009816F025FA0446002C04D00299009819F011FD022800F0AD8000990A78012A67
:201BA00008D0022A16D0042A5AD0082A0DD0102A51D09CE018B91AF047F84044A06011202E
:201BC000387001210098A97053E10820A870122139708AE005213970B24EB14FA8B91AF096
:201BE00033F84044A0606069A1683A68D369327803F1060C02EB82023CF8023009FB0319DF
:201C0000C0F82090A0683968086152463868C16930788B1D00EB8000195A00980FF004FA25
:201C200061696269D27F02F0EF02CA77002861696269D27F42F08002CA770CBF0121022187
:201C400062696369DB7F03F0F0031943D17761694862022048E01020A8701321397044E002
:201C600006213970914EA8B919F0EEFF4044A0608D4A6069A16813685B6903F10C02337845
:201C80001B01D25A09FB0219C0F82090A06886490A68D060844F3868007C0FF00DFC386865
:201CA0004169307801F10C0300015246195A00980FF0BAF961696269D27F02F0EF02CA7771
:201CC000002861696269D27F42F08002CA770CBF0121022162696369DB7F03F0F0031943BE
:201CE000D177616948620420A8700098C1E0002017F0BCF9039850451ED002996C480A78E8
:201D0000802A0AD10821397000780128DBF814001ABF716A0978012109E007223A70007859
:201D20000128DBF814000EBF0121716A4978C1729AF806005949887002989AE019F08CFA00
:201D400010F01F0F35D0012016F05EF920B1012016F05CFC16F03CF9082016F055F920B1FA
:201D6000082016F053FC16F033F9102016F04CF920B1102016F04AFC16F02AF9A87802F0B1
:201D8000C9FC0646307801281CBF0828102801D1746803E0304616F01BF9044630780128E2
:201DA00008D0022816D004283BD008280DD0102832D069E0002C67D019F046FF4044A0603F
:201DC000012111203870A97052E0002C5CD0A870122124E00520387019F036FF0146A068BC
:201DE000514418F06DF8A8B919F02EFF4044A0602B4A6069A1681368DB699F1D294B1B78FD
:201E000003EB8303FB5A09FB0319C0F82090A0681168086102202AE0B4B3A87013213970FF
:201E200026E00620387019F00FFF0146A0681E4F514418F045F8A8B919F006FF4044A0602E
:201E40006069A1683A685369184A127803F10C0C12013CF8023009FB0319C0F82090A06851
:201E60003968C8603868007C0FF026FB0420A870304605B0BDE8F04F0BF096BE05B0BDE869
:201E8000F04F002017F0F2B805B0BDE8F08F00BF183D00208CE20100C80F0020780E002019
:201EA000500F0020D80F0020540F0020D90F0020CC0F00202DE9F04F054687B0A978DFF847
:201EC000D466002710294FF0060A3CD8DFE811F011005E035E035E035E033C00CF005E033C
:201EE0005E03C1021501000113035E039702D90256036878002826D119F0A2FE044619F068
:201F00009BFE054619F094FE8DF8000022461021022017F0E5FA2A461021032017F0E0FA77
:201F20006A460121042017F0DBFA9DF80000012818BF032807D1012019F096FE024606210A
:201F4000062017F0CDFA21E368780028FBD195F80CB06C8900900023E97801AA01F00101C5
:201F6000281D0DF0BDF800284FF0010875D19DF80400FEF714FA8146BBF1080F307A08BF1D
:201F8000B846800018F0C4FF050003D1042017F06DF8FBE270789DF8041002280CBF01200B
:201FA000002000905B464A462046FEF762FC1422002102A818F0BAFD9DF804001AFB00F029
:201FC000243002AA102180B217F076FAB0B91022FF2102A818F02DF880B99DF804001AFBAE
:201FE00000FA0AF1250306AA042198B217F064FA02AA09F00101204619F016FE317A9DF8D6
:2020000004008906E0302A46090E80B217F054FA98B92846FEF729F9BA4609E005EB8000E0
:20202000018819B18278204617F00AFF0AF1010A317A5FFA8AF08842F0D3B07A30B95FEA70
:20204000897003D53178204617F0E6F99DF80400FEF7E2F9284618F063FF7078022805D191
:20206000B8F1000F02D0204612F080FD8EE2A888FEF72FFD19F0D4FD0028F7D1F07D0128D0
:2020800008D1FEF718FAF279706AF775002118F04DFD17E0307E012803D1FEF7B2FA37764C
:2020A00010E000240AE0706AE5B2415D012904D1E0B2FEF711FA716A4F55641CE0B2F17987
:2020C0008842F0D3502017F03BFFFEF77DF95DE219F0CEFD00280CD0F06900281CBF046878
:2020E000002C07D0286900906B7B2A7B6989E81CA0474AE2688901213DE2687800240028CA
:2021000040F0DA80A879C10740F1D6800822002105A818F00BFDA88819F0D2FD040076D06B
:202120006F694FB30622002107F1110017F081FF68B306220021384617F07BFFD0B9387C4C
:2021400000F001084FF0000909F1010987F811900020009000230022414607F111000CF099
:20216000BFFF00285FFA89F002D10028ECD101E000280CD1002068610622607900F001002E
:202180008DF81A00A11D05A818F0C6FC1FE06F69EFB1387C00F001008DF81A00062207F190
:2021A000110105A818F0B8FC6079012805D10622A11D04F10C0018F0AFFC062207F1110100
:2021C000A01D18F0A9FC387C40F002006071A879410720794CBF40F0020000F0FD00207121
:2021E000A9790A0754BF00F0DF0040F020002071A9799DF81B00890801F0010108438DF8C3
:202200001B00A9790A074CBF0821002108E0FEF782FC0028ECD0307804210CF0F3F8E7E75A
:2022200008438DF81B004FF0FF096969DFF86883FF241E2731B31022684618F06DFC10210A
:20224000684619F0E9FC4FF0000BDFF8509303E00BF101005FFA80FB99F80000834510DAE7
:20226000D8F8001017FB0BF00A5CFF2AF0D0084400F10D011022684618F0C8F80128E7D14E
:202280005C46A1460020009000239DF81A1004AA05A80CF025FFB9F1FF0F57D0342855D147
:2022A000707D00B3012851D1A888052119F0B0FC0124A888FEF70DFCF06900281CBF4368CE
:2022C000002B0FD06A78A888012198476878002808D1A879C10705D5F369A88822465C6885
:2022E0000321A0474AE1D8F80000002117FB09F90091002310F80910401C04AA48440CF03C
:20230000EFFE18BB9DF81000FEF7E6F8F0B9FEF75BF8FEF7ADF88DF81000E968686900291A
:202320000CBF00220A69002303930292019100902B69AA689DF8100005A9FDF7AAFF0446EE
:20234000A888FEF7DBFA200047D14CE00020009000239DF81A1004AA05A80CF0C1FE20B1A6
:20236000FEF786F88DF810001AE06869C0B19DF810001AFB00FA0AF123036A46102198B219
:2023800017F09AF860B91022FF21684617F051FE30B99DF81A0005A900F0010019F088FC71
:2023A0009DF81000F179884227D2E968686900290CBF00220A690023039302920191009031
:2023C0002B69AA689DF8100005A9FDF762FF0446A888FEF793FA200005D09DF81000FEF724
:2023E0007BF8FDF7F1FF200008D1707A0028A8887FF460AFFEF721FB5EE7152459E768781A
:2024000006281BD1A88819F05BFCB8B1317D012904D013D3032907D00CD30FE04179A8885C
:202420000022FEF7BCFA09E00022002140F2094003F0C8FAA888052119F0EAFBF0690028AE
:202440001CBF4368002B03D06A78A888022198479BE000970023E97801AA01F00101281D6B
:202460000CF03EFE0028F3D19DF804001AFB00FA0AF1250305F10C02042198B217F030F8CB
:2024800083E0F06900281CBF4368002B03D0A888002200219847707810B9A88805216AE031
:2024A000A88819F00DFC040070D0A87AC10712D5009700236179002201F00101A01D0CF063
:2024C0000FFE00281EBF60790028012803D0E868C0F3402028B1707C022807D1A87A010799
:2024E00004D4A888032119F08FFB4FE06179A88805F1080227E02F7BAD88284619F0E0FBAC
:20250000040042D019F0B4FB00283ED100900023617901AA01F00101A01D0CF0E1FD28BB11
:202520009DF80400FDF73BFF07F00C07042F11D0082F0BD00C2F0FD100F0090109290BD082
:20254000617900222846FEF72AFA1EE010F0090F02D1F5E7C107F3D501220092A37C9DF83A
:20256000041002462846FEF784F90EE070780028E6D10521284619F047FB06E0FEF7CBFAEB
:2025800018B1307804210BF03DFF0127384607B0BDE8F08FA4190020680F0020003E00201B
:2025A0002DE9F04FA7B047F66014002ACFF6FE7400F041829846002724AE169150F827506D
:2025C000254446F827500137032FF7D1D2E9020ED8F810501469D8F808601168A5FB003CA6
:2025E000D8F800701E93A6FB043A814620461D93A1FB05341F941B93A7FB003422912394B8
:202600000446A1FB060111911890A7FB0901179050691C93334613911A9003FB00AAD8F889
:202620000C101E9820977746CDF834E005FB0ECCD8F814E02195850A01FB04AB0846099105
:202640001D9907964E460EFB09C9890A45EA895541EA8B51691AA24619941291229C1199EE
:20266000CDE90AE604FB00111F98556804FB0E0E209A139805FB031102FB0700D8F8047054
:202680002C460C95189B179D07FB060C4FEA93234FEA95254FEAA92643EA815345EA8C55B1
:2026A00066EBAB20CDF85090884610910F90B3EB0509219B23981A9904FB03E602FB01038C
:2026C0001B981C9A4FEA902507FB0A31089745EA8650354604964FEA92264FEAA827169B03
:2026E00046EA815667EBAC22CDF854B00E92B6EB000BD3E900E2129E1F69A6FB0E4A13922A
:2027000006FB02AA5A690F9ECDF800C098680394A9FB074C119206FB0EAA09FB02C6DA681F
:202720000294ABFB008412920E9B0BFB02444FEAA12262EBA522CDF88CE0CDF8048003FBB8
:20274000076E02FB00438046DDE902200591141801984EEB0A020019039042EB0300DDE9D4
:202760001D320290D41ADDE91420009962EB0000DDE917321E901098D31A88411D90DDE91C
:202780001B10DDF898E0421ADDE924C0CDF83CE0A4FB0C161B91A3FB0E191C914FEAEC7165
:2027A000189104FB01644FEAEE71179103FB01911E9BCDF840C003FB0C441D9BA2FB00BA61
:2027C00003FB0E1C4FEAE071169102FB01A1DDE904320E9062EB030303FB00111B98039AB5
:2027E0001BEB00031C986141C018029B4FEA125241EB0C0142EA03321B151592149318F048
:20280000A9F9DDF884E04646CDF81880A8FB0EB2DDF81C80239D0492A7FB0829209C0592A4
:20282000A5FB0E321E931C92A7FB04321B92A5FB082C1D930392C246A6FB0423A046099C60
:202840001F97CDE9013207FB049205FB04C7119CDDF8209004FB0A2C139A019D02FB0A734A
:20286000DDF828A00793049B06FB095506FB0A37059BBBEB030B129B03FB0E7E03FB0853FD
:202880006EEB0C060996DDE90256079FB6EB050867EB03030793DDE91D53DDF840C0ED1AB8
:2028A000ABFB0C73CDE903730F9BDDF838E0A8FB0376CDE91D1023981C9901960597A5FBEE
:2028C0000E67029700FB0A101B991F9F009607FB0911219F079E02FB0700209A04FB02117C
:2028E000189A049C61EB00000BFB0247179A019C039908FB0242099C04FB0C7706FB032C63
:20290000169A029B05FB023200FB0E20009A891840EB07020598401842EB0C01DDE9143263
:2029200018F018F9DDF864C0069CDDF82CE0A4FB0C371F9E0797239F0A93A6FB0E38229AC3
:2029400040420893A7FB0C531C904FF00000CDE92053A6FB025388410D9905950993A7FB08
:202960000E531B9006FB018007FB0131DDF84490DDF84C80049509FB0E0508FB0E171A99C0
:202980000798A4FB02BA04FB01030C98089E04FB00AE129C04FB0C3304FB02E40A9ADDF8F9
:2029A00038C0B2EB060E63EB05021292049A0F9DB2EB0B0367EB04020B92209A059FBA1A59
:2029C000109FAEFB076A2096A3FB05640894A2FB0C4B0D960A94219E239C04FB0164099E17
:2029E0001F9901FB0060199908FB01482299089C09FB0106189817990EFB00A003FB014112
:202A0000129B03FB07000B9B0A9F03FB0511169B02FB03B266EB080303FB0C22209BDB1907
:202A200042410D98C0185141DDE9143218F092F8CDE9191015E000682044C217920742EA28
:202A40009007D1E900238007394618F083F8CDE91D1000201C9000201B9000201A90002015
:202A6000199042F2C820C2F20000DDF868800C3000214FF000091F903098209100EB010A5D
:202A8000DAE90CE01C99DAE904C71E9CAEFB0125CDE921521D9D2390ACFB04300CFB05003E
:202AA000DDF8C0C007FB04001CF80950DAE9146BA5F11407C5F13404FB4000FA04F42343DA
:202AC00040FA07F7343D58BFC717002D58BF40FA05F31B98219CCC440EFB004523989CF8C5
:202AE000044000FB01552299A4F1140021FA00FEC4F1340105FA01F141EA0E0145FA00F080
:202B0000343C58BFE817002C58BF45FA04F1C918199BA6FB08A206FB03229CF808300BFBE0
:202B200008227841A3F11407C3F134052AFA07F602FA05F52E4342FA07F5343B58BFD517E4
:202B4000002B58BF42FA03F68F1940EB0503B9F1030F0BD0B80A1F9940EA835041F80409CF
:202B60001F91209909F10109083185E7B80B40EA834000F1004042F2C82100F1D460C2F26C
:202B80000001086027B0BDE8F08F70472DE9F04F03AF8BB0814600880138092800F291821A
:202BA000DFE810F00A008D009E001B00B001D100E800B50000017B0099F80200010700F1D7
:202BC0001781C00640F17D820E2017F0FBFE002840F0778214F084FA73E2D9F804B001206B
:202BE00047F8349CBBF8166071074FEAD60118BF00EBD601C81D47F838DC20F00700ADEB95
:202C0000000AD546DFF8E884DFF8E894CBF818A0D8F80C0099F8001082B00931DFF8443545
:202C200000220096002518F009FC02B0DFF83845AE4216D0E80805F0070199F800201AF81E
:202C40000000C84000F00101D8F80C006DE90251A918002223460B3118F0F0FB02B0013592
:202C6000E6E7DFF80805D149006801F55621B1FBF0F00EF0FBF898F80000002800F0B58159
:202C800098F80100142840F00A81DFF87014DFF8702410200FF048FAACE1DFF85814DFF8CE
:202CA0005004DFF8543400220978C068023118F0C5FBDFF84814DFF84824102057E0DFF8E7
:202CC000880404216FF0040216F0E8FDDFF82414DFF81C04DFF888340978C0680331ECE1B0
:202CE000DFF80C643078002800F08B80DFF804247178F06812780832132900F2F38082B0EB
:202D0000DFF8403418F00CFB02B04321F6E0D9F80450A64C687A70B1DFF8D403DFF8D413E7
:202D2000C068097882B00131DFF8DC330022009418F084FB02B0EA8882B0DFF8D013102023
:202D400000230094F4E099F80200DFF8E81302018C5A4FF6FF72944200F0B38101EB0010EE
:202D6000C06818F01CFCDFF8D413102022460FF0DBF9A6E1D9F8046099F80200002207F872
:202D8000112CB178032800F29C81DFE810F00400E400EF000001D749D548DFF89C33097890
:202DA000C06889E1002018F05FFFDFF844830622044608F1180117F057FA002800F0818167
:202DC000CC48D8F80C500678204614F049F982B00090B01DCB4B0022C1B2284617F026FDB7
:202DE00002B0A088A8F81C002068C8F8180068E10D2017F0E7FD002840F0638115F0A8FD96
:202E00005FE1D9F80420BB49F0685478097882B00331D04B0022009418F010FB02B00B21AC
:202E2000002C08BF032130790028C74818BF2031042216F033FD706908B118F04EFBC4EB85
:202E4000041018F050FB0028DFF80C83706108BF04460028C8F8084000F0338147F8349CB8
:202E6000A7F13009DFF8F4A20546002609F1020BB44261D01020514632464B460FF054F959
:202E8000584614F0EDF8014628460F2218F0BEFBD8F8100040F836500F350136E8E7DBF849
:202EA000180008F11001042217F0B0FA002800F09C80A64800F11005284618F0A0FB044696
:202EC0000BF10206002C73D004F108003146062217F09CFA002840F08880204618F091FBEC
:202EE0000446EFE782B0964B18F01AFA02B00EF071FB30796321002808BF432192480422E7
:202F000016F0CCFC7A48002181600121C48841718E4950204A880978043A27F8302C15F0A7
:202F200003FF82B08A490090A7F13003102022460FF0FAF802B0C4E0874D57F8349C012636
:202F4000072C00F2BE8006FA04F22846002116F0A5FC0134F4E7002951D06548654AC06804
:202F6000127882B00091511C6E4B0AE06048002900F084805F4AC068127882B00091511CA4
:202F8000654BC9B2002217F051FC02B07EE05848002900F08D80574AC068127882B00091A4
:202FA000511C5B4B002218F049FAC3E740E20100142018F098FA002800F08D80044608304F
:202FC0003146062217F0A8FD00202146A0744FF0FF3020829BF80100A073284617F0AAFC39
:202FE00098F80100013088F80100DBF8180008B118F073FA57F838DC57F8349C61E03D4D28
:20300000DFF8EC80484B00222978D8F80C00013118F014FAA7F13004328844491020234647
:203020000FF082F890BB17F82F0C00F0FE0002282CD104F108000021062217F044FC28BBFD
:203040000234D8F80C802D78204614F009F882B00090E81C364B0022C1B2404617F0E6FB84
:2030600002B0308816F08CFE14283ED2314901EB0010A18801812168416007E01D49C0684A
:20308000264B00220978013118F0D8F92449A7F1110310204FF480620FF046F81448007892
:2030A00078B117F8110C02280BD10EF093FA08E01049C068174B09780131C9B2002217F008
:2030C000B5FBD9F8040008B118F007FAA7F10C04A546BDE8F08F99F80010D8F80C00244B06
:2030E0000022083118F0AAF984E717F05BFF00BFA82100200D3E002083CF0100718A01009C
:20310000E9CB01005CCD010029D001004186010014D0010002D00100ECCF0100D9CF0100F1
:2031200059D50000C8CF0100A7CF0100F9DC0110B7CF0100002F002097CF01000D2B0210E5
:2031400068CD01002ECF0100903C0020B01F0020ED0702106DCF0100683C0020459701106C
:203160001FCF0100CBCE0100E7CE0100D0E70100FFCE01002DE9F84305460C46480414D468
:20318000A00025D4A0075FD4600500F18180200500F10881200700F13D81600040F1F880E7
:2031A00011F01AF824F08044F2E017F089FFDFF824140F6D3FB1D7E90A1202F0E04201F067
:2031C0000A0189184BD018F027F924F48044DFE0BB48DFF80474016841F080010160B87867
:2031E000012804D1042015F03DF80020B87017F067FF0646B348406D016804208847DFF897
:20320000E0130A68904219D12A7EBAB1FA68AAB1DFF8C003806C002800F09780C16840F6A9
:2032200003020988914206D0C06840F604010088884240F08A8005F1140088E040F6C412E2
:203240000860C5E9042284E007F0AEFBDFF88403006C002840F09D8024F0020498E0D7E99D
:203260000A65D7E90A12AA43B143C7E90A1218F0D3F8B8680028A8D056EA0500A5D0D7F83A
:2032800008C03869B7F9301032462B46E0479CE717F016FF054616F0A7FA002800F0B780E5
:2032A000CC48876B002F00F0B280DFF82C830420CC49002288F81800C64817F0CDFA18F05A
:2032C000C0F8C94818F09FF8C4480068006B8047C8F810000125042088F8025015F0D8FA1D
:2032E000386990F82810C8F80400490703D5436A042100229847012011F0BAFED8F8040000
:2033000045760CF0C1FDD8F8040081680B461A465B684BB11E88A6F60306072EF7D805FABD
:2033200006F616F0830FF2D0537B03F0F003013353730023FD6853602D88A5F60305012DC8
:2033400000F28A80C8F810309FE005F1100013F045FB304618F060F815F0B2FA78B12E6A61
:2033600028466FF4807100224FF00073B0479948806B10B110F030FF01E044F00204EE6992
:203380002846002100224FF08063B04724F0005434B1984821462830BDE8F84318F0F7B8E0
:2033A000BDE8F8838C4EB078012804D1042014F059FF0020B07015F083FA38B170686FF487
:2033C000807100224FF00073056AA847306950B182480068006B804732697168801A000BB3
:2033E000C860002030617B4D81490022284617F033FA02203076286C20B17E480221283030
:2034000018F0C5F810F0E8FE24F40064C0E718F018F841E017F054FE054616F0E5F9A0B1CC
:20342000DFF8B48198F8000000070ED498F9000000280AD468460CF0C1FE08B1009820B1E5
:20344000DFF8B49199F8610048B317F0FAFF10F0C3FE24F008049BE7034633F8385FA5B19F
:2034600090F8445090F8456005F0F00580F8445006F0F005013580F8455000255360C563DF
:203480004587507B00F0F000507358480022C2610160012016F034FC24F4806478E70026D4
:2034A0000127602E10D009EB0600817A31B18772407A07FA00F0C0B214F0EEFE2036F0E76C
:2034C000CC2108408C010010032088F81800464817F099FF17F0B5FF444F3E4D0022786956
:2034E00000207861F968F8602846444917F0B4F93A480068006B8047D8F80C10D8F8202053
:20350000411A02EB1130B0EB113F38BF4FF0FF3098F82410C8F8200021B1D8F80810B0EBD9
:20352000C12F20D916F0FCFBB8B140F60900414621F83C0F002048804A7B02F0F00201324E
:203540004A730A7B02F0F0020A734860F8613960B8F83E0010F4406FFAD00020C8F82000C3
:20356000012088F8240012F051FF2548002101600220002116F0C4FB022014F073FE102076
:203580000BF076FF98F8010020B9D8F80400503017F0F9FF1B48807810B90D200BF068FF4B
:2035A00098F8250028B1002088F82500052014F059FE002088F818001348C8F81C00022027
:2035C000B5F85610B5F85420914208BF072010F01BF83CE7081F00203C1C00208C01001064
:2035E00084230020C59701003C38002000100440B1CC0000E01D0020303500203D42010020
:2036000000000460C8E60100A1C800002DE9F04F85B00D460295044615F8011BDFF858A474
:203620008DF801100022DFF8541488788DF8002004F5A47617F024FC01902C219DF8010040
:20364000DFF83C24032804F2191804F1660B04F1F40904F5C77700F0C880072800F0C881B2
:203660000F280CD0112800F03981182800F08F811A2800F04A811B2800F07981D8E199F8A0
:203680000910880703D40F2188F8001059E02878697800EB01223280A878E97800EB0122E2
:2036A00072802879697900EB0122B280A879E97900EB0122F280287A3072697AA87A01EB1D
:2036C00000227281E87A297B00EB0122B281687BA97B00EB0122F281E87B297C00EB0122F0
:2036E0003282687CA97C00EB01227282E87C297D00EB0122B282687DA97D00EB0122DFF8CF
:203700008403F28201788A0658BF1A2712D504F5AA70049071890391307A029021890191B9
:20372000F0880090B38872883188204618F068FAC8B11E2799F80900410706D40F2088F89A
:203740000000204618F058FA06E13A460F21204618F04EFAF0880090B3887288A179384687
:2037600011F0E2FFFFE004F18600718881800023B288C2800222F188018102704380A18EF1
:20378000C91DABF81E10628E8188B1EB520F02BFC188A28E914202BF0089E18EB0EB111FEB
:2037A00021D09BF81000012804BF9BF811000F280CD09BF8150000281CBF9BF811001A2841
:2037C00004D00F218BF81A10FE2183E0FC21204618F00AFAF0880090B38872883188A07918
:2037E00018F0FEF9BFE0102174E099F80900C1070BD499F800101A20012989F8010002D10B
:20380000FF220D213FE00D2164E000208BF800008BF80600012289F804202946082204F146
:20382000B00018F0D9F90146022204F1B80018F0D3F904F1A80701460822384618F0CCF9B2
:2038400006460821384618F0E7F904F19C0704223146384618F0C0F90421384618F0DCF999
:2038600004F1A00018F0B4F904F1980018F0ACF98548018841F08001018099F80000012881
:2038800005D1FF220421204618F09AF96BE09BF811600F2E18BF142E07D00E2E18BF0C2E42
:2038A00003D01A2E18BF162E13D19BF81070204618F082F90421204618F096F9012F06D1C9
:2038C0001A2E8BF81A6014BFFD21FB2102E0314600E00421204618F087F944E028783076E0
:2038E0001A286B78737659D11068A779431C4F430020D855A379126811FB03F11144087156
:20390000A179707E08F089FB2DE094F806C010682E7811FB0CFC604400F1210506F01F03BF
:203920002878B60930B16878F040C00702D5387A042805D120221A21204618F059F912E0B6
:20394000EB701068A27911FB02F10144204681F82360002117F0FDFD28B99AF800004FF4FB
:2039600080410AF04FFD01208DF8000064E0A67913684E433344D88808B900265E70106827
:20398000A27911FB02F1014400200871EBE728786978884204BF084010F0070F48D19BF845
:2039A0001100162805D13A7AA179134600200AF0C3FC022038710121019841770123387ACE
:2039C000397BB870B28E18F0F3F8318E814206D3B28E397BB878012318F0EAF80146B87AD2
:2039E000398040F04000B872012188F81F10BAE728780F2816D01A281AD1A07913684843F9
:203A0000184400234370A079126811FB00F15018037199F80B0000F0FB0089F80B001A20BB
:203A2000A1796FE799F8090000F0FD0089F809002046029918F0B8F89BF811001A2815D180
:203A40009BF8120017281CBF1028FC280ED19BF81060204618F0B0F8012E03BF1A208BF8A5
:203A60001A00FB211A21204618F0BEF89DF8000005B0BDE8F08F00BFC70F0020780E0020E8
:203A8000783D0020200E00209C0F00202DE9FE4F0546DFF83004DFF830640278002A4CD054
:203AA000052A73D0062A00F08080072A18BF082A00F0F7800A2A00F0D881112A02D0132A0C
:203AC00070D0F6E1DFF804341878002118F068F804001EBF606D407810F00C0F2DD0216D9B
:203AE000C0064CBF886CC86E0622016801F10805A91C684617F010F8287800F00F010529EB
:203B00001BD145096946C0F3801018F045F8002813D03168684618F03BF80746316804F1CC
:203B2000380018F035F887420DD0606D4178C80604D440F2014018F027F8C0E1607B40F000
:203B400002006073BBE133681E2010FB07F6981906226946C01D16F0DFFF606D4178C80676
:203B6000F0D5A17B0129EDD1DFF864038178480605D5E90703D4206D41F20A4102E0206DDC
:203B800041F2044141804183418698E117F0DDFC0028FAD10FF010FB012802D0012017F0E8
:203BA000EFFF8CE10FF07FF989E1DFF82853286817F0E2FF0400F7D020790328F4D1207A11
:203BC00000F00F01072937D1C34800684169497A4A1E11425ED0617A04F10A035A5C02F05F
:203BE0003F02252A56DBA17A8A09012A52D111F03F0F4FD0007C16F085FFE17ACA074CBF5D
:203C000004F1110204F10B028B0748BF921D0B0748BF921CC90648BFD21C162112785209AB
:203C20004A43AE498B180A31EB608A5A428699898186DA89C2862DE000F00F00082829D121
:203C4000A17A880926D129B3A3480168087C16F059FFE17A074688071CD5062201F001016C
:203C60005143601800F10C01684616F055FF207AC009FF280ED0694617F08EFF50B13068EE
:203C800000F10D01684617F073FF18B90521384615F0D6FB2079032802D0002015F0E6F919
:203CA00003E1DFF83CB29BF802000024FF281BD016F028FF804608F16C09D9F8040017F053
:203CC0005BFF2A460179032901D011000CD08368197801F003008D06009003D5012400988E
:203CE00018B9BFE01000FAD0E9E05D7803F1020A34B31AF8010B7B4B01902C2098F806C0DE
:203D00001F6810FB0CFC67444FF0010E87F805E0002A1F6898F806E007F11A0C019F10FBBC
:203D20000EFE07F01F070CF80E7098F806701B6810FB07F01844019BC3F38113C3761AD1E7
:203D40000098032808F217171AD0ADB199F8000068B108F1F4000278012A0DD1594B1A78E0
:203D6000072A04D0082A04BFC078012804D13D21797001203870A2E05B4A1378012BFAD05B
:203D800098F8940070B32D1FEDB253462A4640460EF0CEF800281EBF54490878002807D17C
:203DA0003D21797001203870306817F0DDFE86E04F4801688847064698F80610DBF804205B
:203DC0004FF4D07041435018002280F8412108F59E700168807949080EF036FD45490A6889
:203DE00030469047009803281ED043494869007882070DD598F894004A691178002814BF4A
:203E0000281D2846CA0748BFC01C1AF8000000E0812089F808002A460098C3B29BF802000D
:203E2000514604F0F1FD1DE09AF800001CB11B2804BF022D01251C2803D230490B5C9D427A
:203E400005D0B8700721404617F0CEFE0AE01D48017808295146404602D117F038FB01E0E0
:203E6000FFF7D4FBD9F8040020E0254C207830B3244D286817F080FE08B3017903291ED1E6
:203E8000017A8A0611D5807AE178C0F38112914202BF217900F01F00814206D1A078002881
:203EA00001BF607800280121A170286817F058FE05E0002015F0DAF8862017F04DFEBDE8A9
:203EC000F78F00BFC80F0020680F0020D50F0020C00C0020BC0A0020540F0020E0070020AF
:203EE000780E0020783D0020D20F0020013E00205C220020602200208CE2010094E50100BE
:203F0000003D0020AC0C00202DE9F04F0F46380589B018D5DFF8E4532888FF280ED0C0B22A
:203F200016F0F0FD040009D0A079162117F010FE204616F0DDFD204617F006FEFF202880CE
:203F400087F40060D6E1F80504D510F0CEFB87F48070CFE1B80604D517F0CBFA87F020001B
:203F6000C8E1F8070CD516F0B3FF30B100218160DFF88C03006800B1804787F00100B9E1C5
:203F8000380704D517F0B7FA87F00800B2E1F8060FD500210022002306910592049103939E
:203FA000029101920091022017F0CAFD87F01000A0E1B8070FD500210023069105910491A9
:203FC000039302910191009101223C2017F0B8FD87F002008EE179074FF01E08C94EDFF89F
:203FE00028A340F1CD80C9480022002108920791007817F0D5FD0446C5488178FF2904BF66
:20400000002015F033F8A07A16F07CFD05469AF8000095F82E91002805F5947B69D0606D57
:20402000807A022818BF032807D130680D3017F083FD10B93068C11D07915946484617F01B
:20404000ABFDA0B3606D807C3368002818BF012804D11946584617F09BFD04E05A46494655
:20406000184617F031FEFF2843D018FB00F83068404406225946C01D16F04EFD306810F8B6
:204080000810404400F1010BC01D41F0020908900622616DC87A00F0010085F82E01606D34
:2040A00000F10C0105F5947016F036FD21E05946484617F03DFDE0B130685A46494617F0FD
:2040C00003FEFF2815D018FB00F8306840440D3017F032FD58B9306840440D3017F02CFD9F
:2040E000002801BF30684044417F012901D149F0020905F12C004B46017806914289120913
:2041000005920122698C0491C0880899029140080390CDF800B0079801900020A97917F016
:204120000FFDD5F89C017B498842A8790CBF0021012117F0F9FC7848AB7902682C214B4327
:20414000134401221A73AB7904684B4323445A73AB7904684B4323449A73AB7904684B4356
:204160002344DA73AB79006811FB03F10144002008740720A9790CF09AFD87F00400B9E02E
:2041800038060FD500210023069105910491039302910191009101223B2017F0D1FC87F0E2
:2041A0008000A7E0F8045DD55C4930680C680D3017F0C2FC002844D13068C11D0D3017F020
:2041C000AFFC3EE0606D4178480704F13E0526D5287802281EBF03286878012830D1697851
:2041E000306804F1380217F06FFD8146B9F1FF0F15D0306818FB09F948440D3017F09CFC0C
:2042000068B930684844C11D0D3017F089FC30684844C11D062204F1380016F07DFC28783C
:20422000022818BF03280BD130680D3017F084FC30B93068C11D062204F1300016F06CFC00
:204240002468002CBED13648DAF8042000784FF4805112F09FFD10B18E2017F05DFC87F42F
:20426000805047E0B80505D516F048FF2D4901200860FEE7780504D517F0D1F987F48060FD
:2042800038E0780405D5812017F046FC87F4804030E0B9042DD5244C206810B1002014F0DF
:2042A000E5FE4FF0FF3020600020204C0EF090FA216851F8202F684690471D494A6B086BE5
:2042C000C96A24681B4B019200900293ADF810106B46194A19491A4803921A4A0792256845
:2042E000194AA8471949086003F014FE87F4005000E0002009B0BDE8F08F00BF8223002071
:20430000480F0020680F0020880E0020D70F0020780E00204DE50110783D00204C0F00209A
:20432000C70F00207C052043380F0020200F0020441E0020B1AE0100C1AE0100E03C00205F
:20434000403000201EFB0080EC0A00201C0F00202DE9F84FDFF884730446386808B90720D6
:20436000B9E1C07A012804D0042014F035F9012801D10C20AFE1DFF868030078092818BF9D
:204380000A2804D00B281CBF0C280D2801D12120A1E1002C05D0207810B101280BD102E0CA
:2043A000E01C00F0BC80A078002818BF012804D0022818BF032840F0B2806078002818BF5C
:2043C000012803D0022818BF032874D1607A10F0050F70D00025A84640F67B4243F6FD7393
:2043E00040F67746607A0121A940084236D004EB08104189A1F1040E9E453EBFB0F80CC0CC
:20440000ACF1040E9E4510D2614522BF018BB0F816C061450BD3C189A1F1060E96453EBF4B
:20442000B0F810C0ACF1060E964578D28C4576D3B0F812C0BCF5FA7F71DA808AA0F10A0E72
:20444000B6453FBF0CF1010C490001FB0CF1B1EBC00F64D208F101005FFA80F86D1CE8B288
:204460000228BFDD39684C61607A9E4906280CBF01200020087002F039F9050008BF09209C
:204480000BD03A68A9791174E01C07D0A278E11C402007F087FB08B10B201CE105F16101FC
:2044A000284617F035FB05F12C06B07B012803DC28460BF0EFFB32E039686078DFF828829D
:2044C000DFF828B2DFF82892DFF828A288726078002818BF012807D1C0073B6854BF59460B
:2044E00041460622181D40E0DAF800000D3017F023FB30B999F80010002904BF207800284E
:2045000013D16078C10754BF5946414617F010FB28B16078C10754BF5946414601E0122007
:20452000D9E038680622001D0EE0DAF800003B68C11D0622181D16F0EFFA6F4801680868C0
:20454000DAF800300622D91D16F0E6FA6078DAF8001000F0010008706078C107DAF80000C0
:2045600054BF594641460622401C16F0D5FA207870BBA07885F82E0105F594780622E11CF7
:20458000404616F0C9FAA178DAF80000E21C01F0010117F099FB0146FF291CBF99F800007A
:2045A000002815D0A07840F0020085F82E011E22DAF8003051431944487F48B901F10D00FE
:2045C00017F0BAFA20B906224C49404616F0A4FA17F09AFAA86216F0D5F8686204F1100118
:2045E000DFF8008198F80000000104F114030A5AF280195A71812044428A328102223868E4
:20460000417C3170B2700020B08016F0C0FE0C2290FBF2F20C2101FB1200401DF07304204A
:204620000AF048FC3968364A364B0860426083613549416106200CF01EFE39680120C87252
:20464000A87915F0B9FE99F80000002801BF386841690A78012A0ED1807A02280BD1DAF85C
:20466000001001F10D0017F067FA20B92748417941F0040141711A4C2078C8B999F80010B9
:2046800049B12348006817F03BFA38680068816941F4802181613868007C0CF00DFF06201D
:2046A0002070012200210CF002FB16F088FF11E03A68117ED068526998F8004002F10C03B9
:2046C000240140F6C4121D5B02FB050000F516600BF038F90020BDE8F28F00BF540F002010
:2046E000C80F0020D90F0020480E0020400E0020880E0020680F0020983D0020006E021015
:20470000040C002002008080B9370100BC0A00206C0F00202DE9F041FF2805462AD116F03B
:204720009BFD10F01F0F22D0042013F06DFC08B1042016E0012013F067FC08B1012010E00D
:20474000022013F061FC08B102200AE0102013F05BFC08B1102004E0082013F055FC20B16E
:204760000820BDE8F04113F051BF14F07FFC0020BDE8F08113F04AFF5FEA000814BFD8F833
:2047800004400024012D46F2A81740F6C4160BD0022D68D0042D00F0A780082D00F0F48059
:2047A000102D00F03281E2E7012013F02DFC00281EBFB648006800281CBF8788BF00102097
:2047C00013F022FCF8B1102013F020FF05466E6846B9022013F018FC20B1022013F016FF59
:2047E00005466E68012013F00FFC002818BF002C07D0B068C11BA06815F062FB08B94046C2
:20480000B6E72846B4E7022013F0FEFBA0B1022013F0FCFE06460120756813F0F5FB0028FF
:2048200018BF002C06D0A868C11BA06815F048FB0028E4D030469BE7042013F0E5FB08B1CF
:204840000420E5E7082013F0DFFB30B1082013F0DDFE416800298BD1D1E7012013F0D4FBA3
:20486000002885D0CBE7022013F0CEFB58B1884801688848CA69017801EB81015318DF881D
:20488000774307F51667042013F0BEFB28B1042013F0BCFE06460220BEE7082013F0B4FB5E
:2048A00080B1082013F0B2FE05466E6846B9012013F0AAFB20B1012013F0A8FE05466E6847
:2048C000022090E7012013F09FFB28B1012013F09DFE064602209FE7102013F095FB08B179
:2048E0001020B4E70220B9E7042013F08DFB50B16948016869484A69017802EB01139F895B
:20490000774307F51667082013F07EFB80B1082013F07CFE05466E6846B9012013F074FB37
:2049200020B1012013F072FE05466E6804205AE7012013F069FB28B1012013F067FE064656
:20494000042069E7102013F05FFB88B1102013F05DFE05466E68002EE8D1022013F054FB13
:204960000028E3D0022013F051FE05466E68DDE7022013F049FB28B1022013F047FE06460B
:20498000042049E7042069E716F0D5FD08B1D0F89070042013F038FB28B1042013F036FE68
:2049A0000646082038E7012013F02EFB60B1012013F02CFE0646082013F026FB002818BF21
:2049C000002C3FF437AF1AE7102013F01DFB80B1102013F01BFE05466E6846B9022013F084
:2049E00013FB20B1022013F011FE05466E680820F9E6022013F008FB28B1022013F006FE52
:204A00000646082008E7082028E7032016F095FD08B1D0F89870022013F0F6FA50B1022080
:204A200013F0F4FD0646102013F0EEFA002818BF002CC6E7042013F0E7FA28B1042013F03B
:204A4000E5FD06461020E7E6082013F0DDFA80B1082013F0DBFD05466E6846B9012013F0B1
:204A6000D3FA20B1012013F0D1FD05466E681020B9E6012013F0C8FA28B1012013F0C6FD10
:204A800006461020C8E61020E8E600BF8C3D0020500F0020D80F0020540F0020D90F002035
:204AA0002DE9F84F054605F14C0AE87D9AF80010DAF8047081424FF00008C0F0938105F1F1
:204AC000280407F1900907F17306C34640F08C80A87F7075E97FB175DAF80820527893076B
:204AE00010D5EA7FD30604D5C01E707501F0EF01B175C7F874B086F800800022B17D01F0CA
:204B0000FE016AE1910608D4E08B00B1E07E3076E08B00B1206AC9F80000DAF808004178BE
:204B2000CA070DD5E08B00281CBF206A002807D0C9F80000A17EE08B814238BF08463076D2
:204B4000E87FC1060CD5B86B217800EB8100B863B86BA98CA63100EB81007867022002E085
:204B6000C7F874B000203070DAF80800417811F0030F22D1007816F0E2FC5FEA00081CD060
:204B800098F8B000032809D1E87F810615D440F02000E877B07D40F020000DE068B9E87F58
:204BA00081060AD500F0DF00E877707DA0F112017175B07D00F0DF00B075E97F002201F04E
:204BC000FC01284609F03EF9B8F1000F36D0E87F810633D598F8B00002282FD14146284627
:204BE000BDE8F44F16F0B7BCE87F81060AD500F0DF00E877707DA0F112017175B07D00F0C5
:204C0000DF00B075DAF808004178C80717D5B07D717D00F0F700891E01F03F0182075CBFC4
:204C2000891D40F00200420644BF491E00F0BF00B0757175C9F800B086F81880D2E09AF865
:204C40000020E87D121AD2B28907009240F18280012A07F140083FD1B86BA98C00EB81008B
:204C6000B863A87F00F03F00A8777075E97FB175DAF8082053785A0703D5801F707501F0BE
:204C8000FD01B1750023707DE17E00F03F00421898F80000521CC0F3800192B200F003008F
:204CA00016F02AFF00F59B70A8841E21A88C90FBF1F18AB2B17D01F0FE01284609F0C2F83E
:204CC00086F800B0E08B00B1E07E3076E08B00B1206AC9F8000085E0B86BA98C022A00EB4B
:204CE0008100B86326D1E87FC10706D5707D811F7175B07D00F0FE00B0750023707DE17EF5
:204D000000F03F00421898F80000521CC0F3800192B200F0030016F0EFFE00F59B70A88482
:204D20000022B17D01F0FE01284609F08BF8607FA8F81A00617F0098491C081AC0B2012816
:204D40001CDDB96BAA8CA63201EB820179670221317014E0B86BA98C00EB8100B863617F62
:204D60000098081AE97FCA06C0B207D5B96BAA8CA63201EB820179670221317090B395F8DE
:204D80001F80A97FD9F80020E37E1A44C9F8002028F00108DAF808205278530748BF28F05D
:204DA0000208920748BF28F00808012807D1207F3076C7F874B028F0100886F800B001F0A9
:204DC000C004404616F094FE00F03F002043707586F81680002208F0FC012846BDE8F84FF5
:204DE00009F030B8BDE8F18F2DE9F04F8FB0074618984FF0000C002A01938DF8200000F07E
:204E00008D810AA80E464FF0200A002400F1100ECDF800E0114611F8010B25280E910CD009
:204E2000002800F07781022EC0F00C81013E002F00F0078107F8010B04E15378901C0E900A
:204E40002D2B07D14FF00109D01C8DF80D900E90937803E04FF000098DF80D90302B05D1A4
:204E60000121069110F8011B0E9002E01946CDF818C04FF0FF322A29CDF808C004922CD1F6
:204E8000019D29680A1D2A60D1F80080CDF80880B8F1FF3F10F8011B0E9007DC4FF00109C7
:204EA000C8F100088DF80D90CDF808802E2925D1CDF810C0024612F8011B2A290E9220D18E
:204EC000019D29680A1D2A60096821EAE17BCDF810B0417802300E9027E04FF00008A1F12C
:204EE0003002092AE0D810F8012B08EB880501EB4501A1F130080E901146F0E74FF0FF3BA0
:204F000013E04FF0000BA1F1300009280AD812F8010B0BEB8B0501EB4501A1F1300B0E9244
:204F20000146F0E71046CDF810B0302B41F0200306BFCDF81880424600226C2B06D101216D
:204F40008DF80C1010F8011B0E9001E08DF80CC0CDF81CE00AAB6929CDF814C0099301D0AE
:204F600064290CD1019B1868011D19609345C8BF5A46016870466FF0090306921EE0752957
:204F80000AD0A1F16F03092B5FD8DFE803F0058C6A6AA76A6A6A6A05019D2868031D2B607C
:204FA00078294FF0080308BF1023752908BF0A239345C8BF5A460168069270460EF08CF842
:204FC000DDF800E00990AEEB00010591A8EB01004FF0000CB9F1000F02901CD109E0022E23
:204FE00006D3013E1FB107F801AB029800E00027013401380290F2DA0DE00998022E07D319
:20500000013E27B1007807F8010B099800E000270130013409900598411E00280591ECD1D8
:205020009DF80D0078B10298013802900BDB022E05D3013E17B107F801AB00E00027013464
:20504000F1E7002701340E9AE4E6632909D1019A1068011D11600121006805918DF82800D5
:20506000B4E70138022E0E9052D36FF000400BF1010186426FF0004038BF30460246B345B8
:2050800038BF0A46002908BF024604920EA9019A02AB05F02DFDDDF800E09DF80D90DDF821
:2050A0000880059992E7019A10231068011D11600821082206919DF8201000290168704685
:2050C0000EF00AF8DDF800E0A0F101014FF04002099100F8012CAEEB010176E7019A10683D
:2050E000011D11609DF82010006800290D49002808BF0846099015F07FFF0146834538BF16
:2051000059461BF1010208BF0146DDF800E05CE700215BE70FB100203870A44660460FB0A1
:20512000BDE8F08FE6D501002DE9F043044685B0084611F801CBC24FC24B2C22BCF1070F75
:205140004FF0000904F5A47604F1760504F1FD0800F03181BCF10F0F0CD0BCF1110F00F084
:20516000D080BCF11A0F00F0E280BCF11B0F00F0128143E198F800309A0703D40F2188F851
:205180001C1075E02878012804BF68780F280CD0687908B16A7812B12A7B012A07D15807C9
:2051A00003D40F2188F81C1062E0232265E010B16878012802D0A87E012807D1580703D477
:2051C0000F2188F81C1053E02A2256E008784A7800EB022333808878CA7800EB02237380F4
:2051E00008794A7900EB0223B3808879CA7900EB0223F380087A30724A7A887A02EB002367
:205200007381C87A0A7B00EB0223B381487B8A7B00EB0223F381C87B0A7C00EB02233382B5
:20522000487C8A7C00EB02237382C87C0A7D00EB0223B382487D897D00EB0122F28204F549
:20524000AA70049071890391307A029021890191F0880090B38872883188204616F0D0FC6C
:20526000C0B198F80000410706D40F2088F81C00204616F0C1FC85E01E220F21204616F0D6
:20528000B7FCF0880090B3887288A179002010F04BFA7DE07088A882B188E9820221F088E1
:2052A00029742883A5F81290A18EA88AC91DE981618EB0EB510F02BFE88AA18E884202BFDF
:2052C000288BE18EB0EB111F16D0687900281CBF68781A2803D00F21A972FE210DE0FC21AE
:2052E000204616F081FCF0880090B38872883188A07916F075FC4BE00021204616F074FC17
:2053000046E00F7837761A2F4978717676D11868A779411C574301F807901968A37912FB2A
:2053200003F20A4482F80490A179707E5DE094F806C018680E7812FB0CFC604400F1210CA8
:2053400006F01F019CF80000B60940B19CF80100F040C00703D594F89601042805D1202228
:205360001A21204616F044FC12E08CF80310A179186812FB01F28118204681F82360002107
:2053800016F0E7F820B938784FF4804109F03AF84FF0010936E0A179186851430144C8884E
:2053A00008B981F80190A179186812FB01F2811881F80490ECE709780F2919D01A291DD13C
:2053C000A1791868514301441A2081F80190A1791B6812FB01F2991881F8049098F8021019
:2053E00001F0FB0188F80210A17906F016FECFE798F8001001F0FD0188F800100146204688
:2054000016F072FB68781A2815D1A878182818BF002803D0152818BFFC280CD12E782046BE
:2054200016F0CAFB012E03BF1A20A872FD211A21204616F0D9FB484605B0BDE8F08300BFA9
:20544000C70F0020783D00202DE9FF47AA48017806294FF0010840F04981A84EA84F3068C4
:20546000A84C016801F108054FF0FF09297801F00F00072802BFA8788309012B40F09780D9
:20548000002800F09480E878C30707D50622291D684615F041FB2878C0F38019E9788807A1
:2054A00037D5062201F001012B1D5143194402A815F032FB2878C009FF282AD002A916F075
:2054C0006BFB002800F08F802068807A022818BF032804D138680D3016F02EFB002840F058
:2054E0000081386800F10D0102A816F041FB002874D02068062202A9001D15F00DFB7079C6
:2055000040F0040070710622386802A9C01D15F003FB4846FF2800F0E480694616F03CFB2E
:205520001E25002800F0A8803968684616F030FB2268014650690078FF2900F08280002824
:2055400015FB01F563D1107C15F0DCFA90F82E11022918BF032901BF3B685A5D01F00101A8
:205560008A4253D100F59479581906224946401C14F04CFF30B906224946634814F046FFD2
:20558000002843D020684169386840190622C91C401C14F03BFF002838D0707940F00800AD
:2055A000707106226946484615F0B6FA43E011F00F0F1CBF01F00F02012A27D10622A91CC1
:2055C000684615F0A9FA287800F00F010129C0F380199ED1062205F1080168E73068016879
:2055E00000220A7184E02168887A022818BF032805D138680D3016F09FFA002889D1206897
:20560000807A002818BF01283FF483AF69E0706939684A5D4919491C083816F061FA3B49AD
:205620000A7890425DD07069396849196A46C91D083816F051FA3868401906226946C01D39
:205640004DE000284DD1107C15F05CFA0746206840698278914544D1C11C0622684614F0D6
:20566000D5FE00283DD0707969F3C30070710622694607F5947032E021684A69107880BB51
:20568000087C15F03FFA82469AF82E01022818BF032826D138686A46494616F015FBFF2880
:2056A0001FD015FB00F5386841194A7F012A04D00D30401916F040FA98B120684169386843
:2056C00040190622C91C401C14F0A0FE48B1707969F3C3007071062269460AF5947015F0A5
:2056E0001BFA306801680020087101E04FF00008404604B0BDE8F087C80F0020BC0A0020A0
:20570000680F0020540F0020006E0210FF3D0020F8B57C4C072000257B494FF0FF32C4E9F1
:2057200002053820C4E9001215F0DDFE206118B17649C0E900512069C0B17549754AC0E948
:205740000221206990B174490022DFF8D0C1764E734B744D754FC0E90C217549C0E90626A5
:20576000C0E90853C0E90A2CC0E90417674D0220704915F0DAFD102015F01FFE286120B16B
:205780006D496E4AC0E90021286918B16A496C4AC0E90221604D03206A4915F0C6FD1820BF
:2057A00015F00BFE286120B16749684AC0E90021286940B16449664AC0E90221286910B158
:2057C000644AC0E90421584D0820634915F0ADFD402015F0F2FD6149286100200022082A2A
:2057E00008D02B6923B143F8320003EBC20359600132F4E7494E142059494FF0FF32C6E9F6
:205800000204A020C6E9001215F06DFE5549306100200022142A08D0336923B143F832002D
:2058200003EBC20359600132F4E74F4D072000214FF0FF32C5E90206382015F0BEFD286143
:2058400020B14A494A4AC0E900212869C8B1494A0021C0E90212286998B1474A474BDFF837
:2058600020C1DFF820E1484E484FC0E90C32484A484BC0E9086EC0E90A1CC0E90437C0E9BB
:2058800006273C4E042044494FF0FF32C6E902052020C6E9001215F026FE306120B13F4966
:2058A0003F4AC0E90021306958B13C493D4AC0E90221306928B13C4A3C4BC0E90431C0E915
:2058C00006212F4D05203A4915F02FFD282015F074FD286120B13749184AC0E900212869F7
:2058E00070B13449344AC0E90221286940B1334A134B334CC0E90441C0E90631C0E9082144
:20590000F8BD00BF903C002040DB0100B83C0020318E01004FDB0100403C0020CC3C002048
:205920004DA6010071DB0100683C002065A6010060DB010083DB01000D48010094DB0100F5
:205940009BDB0100A1DB0100B9A50000B1DB0100B9DB0100C1DB0100C9DB0100F12B010074
:20596000D4DB0100AD1B0100A43C002019610100DEDB01007C3C002031A201001FDC0100D1
:20598000543C00205D0201000DDC010011190100FBDB0100E8DB01002ADC0100891801009E
:2059A00035DC010040DC010056DC01004BDC010061DC0100C950010079DC01008BDC010047
:2059C00080DC0100F8B5144600254FF48067DFF89862C21B84B006F1880337D0921E3CD0ED
:2059E000521E44D0521E4AD0521E50D0521E54D0521E00F07A80921E00F07C80D21E00F09F
:205A0000AC80521E00F0B780921E00F0C080521E00F07B80521E00F0C180521E00F0CF8038
:205A2000521E00F0D280521E3ED0521E56D0521E4BD0921E00F0DE80921E00F0E280521EA5
:205A400000F0ED80521E00F0F98000E101290FD12078022817DC707003E1012908D1207811
:205A6000022810DA0028B070F6D1B074E3E0012940F0EB802078052805DAF070F1E0012958
:205A80006CD12078022880F2E0807073E9E0102964D110222146754814E001295ED12078E0
:205AA000022863DA3071DCE0012957D1207802285CDA00287071F6D00120F074602206F10B
:205AC0002801184615F028F8CBE00129FCD12078022802DAB07115F003FAC2E001293DD1DD
:205AE0002078022842DAF072BBE0012936D12078F073B6E0002931D116F092F810B9FAF794
:205B0000DAFC1DE00120F075ABE0072926D10622611C02A814F05AFE00950023217801AAD3
:205B200002A809F0DDFAB0B9F07A10B916F078F810B1F07A012808D19DF80400FAF7CCFC5A
:205B40000546502014F0FCF91EE0716A9DF804200120885485E0342583E0012975D1717C84
:205B60002078022903D0C11F0A2902D36DE010286BD1307475E0012967D1B17D2078B075A0
:205B8000002908BF01286CD1FAF71EFC69E001295BD12078032858DC307562E0012954D1D8
:205BA0002078022851DC00284FD07074022803BF102030740120002015F08AFF51E00129E1
:205BC00043D1207814F006FC4BE0707900283CD1602908D1002C38D060222146184614F0E9
:205BE0009BFF012004E001292FD1002C2DD02078F07436E0012928D13CB320781C4908701A
:205C00002FE011BB16F00CF830B9FAF7FAFC0546502014F095F924E00120307621E001298C
:205C200013D12178022910DA012904BFB078002816D0B174084615F05BF912E0012904D1F2
:205C400020780228B8BF70750BDB182509E00F2806DA022904D1218811F0C2FA054600E072
:205C60000225284605B0F0BDA4190020C43A0020053E00202DE9F04F89B0A04E0546A04F19
:205C800030780328387040F0AC8000203070387002AC204615F0F0FB2046002114F09CF9A1
:205CA000984CB8602E21204614F064FF4FF0FF30A0822061E06013F079F80020294610F078
:205CC000C9FB07F11001F86015F0B5FBD7E905128D4DB1FBF2F0C0B2022828BF0220207076
:205CE0002870B2F5005F7AD1B1EB403F77D3F968002974D04FF6FF7100274FF088586FF02E
:205D0000030B61808149616087426DD2FEB2002108AA0423304615F003F807EB470004EBB9
:205D2000800A0898D14600F47C0129F8160FB1F5402F04D000F07F41B1F1164F3ED1C0F309
:205D400001418AF819106FF0FD0151FA80F21021022A31D3C2B27E2A2ED003A811F0E8FF2E
:205D6000304600214FF088524FF400534FF4005514F0D6FF1BFA85F5A8B250F808104A1CBD
:205D800001D10328F6D801220126D3B2042B06D8CBB2FF2B18BF16460132090AF5E740F828
:205DA00008105C480399006842685B48904755FA86F199F80000544DAAF81C10C0B270282F
:205DC00007D0782803D0FE2805D07C2804D1E77002E0277100E0A7702878013794E70120C9
:205DE000307009B0BDE8F08FE178FF2903D0DFF81081012529E02179FF2904D0DFF800814D
:205E0000E170022521E0A178DFF8F480FF290ED00131B1FBF0F202FB101000EB400104EBA7
:205E20008101898B09B1E070EBE7FF20A07000250020E5700AF028FD98F8001008437E217E
:205E400088F80000002012F0F3F9A078FF2813D12D48E17800780131B1FBF0F202FB10106E
:205E6000A0700AF011FD98F800100843FE2188F80000A07812F0DCF92548E278022D057026
:205E800002EB4200627004EB8000818BE18028D0012D2BD103AD002788B2182826D3073979
:205EA000D0B22A4689B20BF0FDFD9DF81700400717D5E088BDF81A10E6782A46032300970F
:205EC000401A073881B2304605F04CFDE27820B9BDF8181009B196420BD0964206D0E188AE
:205EE000DAE701206071002000F018F898F8000077E79DF81C0010F09DF8F7E7B7220020C4
:205F000058210020DC3900200A3E0020FF0000200B3E0020D8010010004003402DE9F04F02
:205F200097B0DFF884828246D8F8040018B18047002800F0D9809D4F012000210423002427
:205F40007E78F873BD7808AA304614F0E9FE9DF82200800703D07879002800F0C6803046C2
:205F60000621F8224FF0F80914F0F2F806EB460407EB840080F818909DF82000702803D0C1
:205F80003046702112F054F9CDF810A0069608AA2846002104234FF0000914F0C1FE9DF892
:205FA0002000FE2803D02846FE2112F041F928460621FE22FE2614F0CBF807F11600BA781F
:205FC00088F80090059500EB8401C9880192798205EB4501039100EB810101F8026F7E7831
:205FE000029106EB460100EB8101B1F806A002EB420100EB810030F8061F079100900EA853
:2060000011F096FE0DF124090FAD1FFA8AF0172860D398F80000002860D1AAF1070B3046F3
:206020004A461FFA8BF739460BF03CFDBDF8324004F11000B8421BD89DF82E00962817D100
:206040009DF82F00C10742D1800740D5ABEB0400C1469DF82D20214633461FFA80F840468B
:206060000DF016FC08B3C846AAF1080B0DF124095C46A0B216282ED93628A4F116073046B0
:206080002A4688BF2027E41BBBB2A1B214F048FE3804EED015FA87F010F8010C962801D0D5
:2060A000013FF5E707EB040AAFE704F1070A079F41491FFA8AF313FA87F00A1A30464146BD
:2060C00014F02EFE5744C8460DF124090797ABEB040A9AE7D34698F8000050B134480E992C
:2060E0000068426833489047002420B217B0BDE8F08F079E019C1021C6F50052A6F1100034
:2061000083B2C1F20012204611F02EFE98F8001008430E9988F800002548006842682548F4
:206120009047224D00980123B5F91220697B06802046A5F814B02E8212F022FEB5F9142098
:20614000A97B2046022312F01BFE049A002A08BF1022288A7C21C0F500509042B8BF78217E
:20616000059F384612F064F8069E30460AF08CFB88F8000038460621FC22FC2413F0E8FFB7
:206180000298FE21AE70EF706F700470039805EB8000808BE880304612F04AF80020687145
:2061A000E888C0F50054A0E758210020DC390020D801001000400340002000112DE9F04F1F
:2061C0008DB0044600209A4616460F46CDE90B00CDE909008748856880460BF0E9FE1C285F
:2061E00003D00BF0E5FE1B281BD1308840F60201884218BFB0F5C15F03D1F07B022810D916
:206200003EE043F6070188420BD196F82400032807D33069784940F0806020F060408842DE
:206220002ED100206FB366B3387825FA00F0C00726D03046002115F092F97048C4E9017685
:20624000006880B109A800900CA90BAA0AAB304605F070FF0B980B214FF6FF72502313F070
:20626000CFFCFF280CD014F02BFF654F06467878012802D840B1012070E0304615F0CCF88E
:2062800000200DB0BDE8F08F05F0C8FE5D480DF10409016841F0020101605B48C8F8000031
:2062A000484614F08DFDDFF864B15A494A469BF801009BF8005003905548283012F054F856
:2062C000554856494A4612F04FF8484614F000FDDFF84C81534A19214B460295404611F0F0
:2062E000FDF8514A08F11C001A214B4611F0F6F84E484F4915F065F84E484F4915F061F822
:206300004E48006810F4402F06D04D4A07F128000421002313F032FA9BF8020010B10D2085
:2063200009F05AF908F1400014F0A1FA08F1380014F09DFA4349002007223876B884386214
:20634000386181F860200521C7E902103E49F96138700420002113F0D3FC78782C4941F885
:20636000204001307870304615F056F8BAF1000F06D10DF1040A35492022504615F046F9A4
:20638000DAE90012BAF81000DAE90635002AB2FA82F608BF40F6C412626121606083256398
:2063A000760926764FF4FA76C4E9036201226276274AC4E90722C4E90923DAF80C0000B153
:2063C0002062DAF8140000B16062DAF8080000B1E06104F13800C82114F0CCFB04F15000F0
:2063E000002113F0BDFC1B4904F1B80014F0E9FF204646E7CC2108400F0000053423002070
:206400003C1C002000200940110000E0C8E60100E01D0020F9A1010004390020C5EB000036
:20642000081F00203D4201007D2B010080380020A19701003C380020A5A10100B44F0050AD
:206440005D5A010030350020A1C80000C0E40100FB81010049B4010082492DE9F043824C94
:20646000824E20700A22002008600D23804840F2262102704380818085B07E480660B77ECB
:206480007D480770FF2FF17E417008BFFF29327F8270737FC370B57F0571F67F467114D100
:2064A000FF2A08BFFF2B10D1FF2D08BFFF2E0CD172490A7802704B7843708A788270CB7888
:2064C000C3700A790271497941716D4902786D4D6D4E6E4F0A7043784B7082788A70C3789E
:2064E000CB7002790A714079694A4871FF2028706870A870E870287168710020654908807F
:20650000F06B6549407808706449F06B007808701388634863490380F06BC06C086062493B
:20652000F06B90F83C0008706049F06B90F83D0008705F49F06B90F860000870F06B40691C
:2065400001795C484A1E0270F06B5B49C0783870F06B8069086008B912F088FDF06B574975
:20656000C069086008B912F081FDF06B416D54480C2214F0D1FA15F0A7FAF06B5149006AA2
:20658000086008B912F072FDF06BDFF83C81406AC8F8000008B912F069FDF06B4B49806A06
:2065A000086008B912F062FDF06BC06D00B1012007F0F3FF00F074FE07280AD105F082FB30
:2065C00020784FF4804107F01DFF002012F04EFD44E03F480168884781460DF04BF8D8F8E5
:2065E000000001688847684614F0F2FBD8F8002004208DF80000694652F8043F00209847F0
:20660000344908600FF042FBF068334A01883878324B014311804846196888470C21304876
:2066200014F0E1FF284615F04BFA15F045FA2D4800214FF6FF72016082808171F06B90F8F6
:2066400058102948006814F013FC0121FF2014F068FF20784FF4005107F0D4FE05B0BDE8EB
:20666000F08300BF380F0020C70F0020B64F0050700E00203C0F0020400E0020E812005075
:20668000500E0020480E00208CE20100C40F0020B02300209E0F0020C60F0020D40F0020EC
:2066A000EC3D00207C3D0020FF3D0020003E0020FD3D0020CB0F0020200F0020240F002008
:2066C0000C3D0020280F00202C0F0020300F00205C220020843D0020A00F00206022002050
:2066E000FC0D0020800E0020983D0020F8B58B488B4D01782A788A4200F00E816A6800241A
:2067000000E0641C8C4280F204814FF4D0736343134418790028F4D1E0B214F0F3F90121AF
:20672000017100224271426200F161018471012200F168034A711A71012400221A609A60A6
:2067400000F1900602814281047480F8392082610277C283327000F592749A762275802797
:206760001F739A730027FF22DF741A7600F20D131F70DF70BC46BE4600F5897783F801C028
:2067800083F802E0A7F800C0A7F802C087F805E000F1E70386F804C083F800C083F801C0E4
:2067A00000F1EC03C3F800C0C3F804C083F80AE083F80CC083F808C083F80DC083F80EC07F
:2067C00083F80FC0A7F808C0A7F80AC0A7F80CC0A7F80EC047F23057A76100F5C676C4F812
:2067E00000C02273A4F80EC084F81CC084F81DC0A2770127B7720227F77286F80EE086F843
:206800000CC0484FDFF820E13F78777386F806C084F80AC084F804C084F805C084F806C04F
:2068200084F807C084F808C084F809C000F5B3743E4F84F800C086F800C04FF01B0C3F883C
:20684000E7803B4F3F882781BEF800706780394F3F88A780A4F80AC04FF4A477E781278280
:20686000A4F80CC0E7822783A4F812C0A4F814C06783A783E78327846784A784A6F802C020
:206880000127377100240719641C042C87F87720F9DB294A14780C7057784F7094788C7039
:2068A0000446D778CF7012790A710021234A50186718407887F8FD00491C0829F7DB204881
:2068C000306100211974A07914F0DAFA0646A0790EF0ABF91B480178307C717300F0FC0029
:2068E00030740022B069F28100F0004040F4853040F04000B061307F00F0F80030772878CE
:20690000401C2870C0B2012804BFA079A8702046F2BD002012F0AAFB0020F2BDD40F002046
:20692000780E0020C50F00208A0F00208C0F0020980F0020960F0020383D0020C00C00203C
